{
  "_format": "hh-sol-artifact-1",
  "contractName": "MultisignatureWallet",
  "sourceName": "contracts/MultisignatureWallet.sol",
  "abi": [
    {
      "inputs": [
        {
          "internalType": "address[]",
          "name": "_owners",
          "type": "address[]"
        },
        {
          "internalType": "uint256",
          "name": "_numRequiredApprovals",
          "type": "uint256"
        }
      ],
      "stateMutability": "nonpayable",
      "type": "constructor"
    },
    {
      "anonymous": false,
      "inputs": [
        {
          "indexed": false,
          "internalType": "address",
          "name": "owner",
          "type": "address"
        },
        {
          "indexed": false,
          "internalType": "uint256",
          "name": "_txIndex",
          "type": "uint256"
        }
      ],
      "name": "ApproveTx",
      "type": "event"
    },
    {
      "anonymous": false,
      "inputs": [
        {
          "indexed": false,
          "internalType": "address",
          "name": "owner",
          "type": "address"
        },
        {
          "indexed": false,
          "internalType": "uint256",
          "name": "_txIndex",
          "type": "uint256"
        }
      ],
      "name": "CancelApproval",
      "type": "event"
    },
    {
      "anonymous": false,
      "inputs": [
        {
          "indexed": true,
          "internalType": "address",
          "name": "sender",
          "type": "address"
        },
        {
          "indexed": false,
          "internalType": "uint256",
          "name": "amount",
          "type": "uint256"
        },
        {
          "indexed": false,
          "internalType": "uint256",
          "name": "balance",
          "type": "uint256"
        }
      ],
      "name": "Deposit",
      "type": "event"
    },
    {
      "anonymous": false,
      "inputs": [
        {
          "indexed": false,
          "internalType": "address",
          "name": "owner",
          "type": "address"
        },
        {
          "indexed": false,
          "internalType": "uint256",
          "name": "_txIndex",
          "type": "uint256"
        }
      ],
      "name": "ExecuteTx",
      "type": "event"
    },
    {
      "anonymous": false,
      "inputs": [
        {
          "indexed": true,
          "internalType": "address",
          "name": "owner",
          "type": "address"
        },
        {
          "indexed": false,
          "internalType": "uint256",
          "name": "_txIndex",
          "type": "uint256"
        },
        {
          "indexed": false,
          "internalType": "address",
          "name": "_to",
          "type": "address"
        },
        {
          "indexed": false,
          "internalType": "uint256",
          "name": "_value",
          "type": "uint256"
        },
        {
          "indexed": false,
          "internalType": "bytes",
          "name": "_data",
          "type": "bytes"
        }
      ],
      "name": "ProposeTx",
      "type": "event"
    },
    {
      "inputs": [
        {
          "internalType": "uint256",
          "name": "_txIndex",
          "type": "uint256"
        }
      ],
      "name": "approveTx",
      "outputs": [],
      "stateMutability": "nonpayable",
      "type": "function"
    },
    {
      "inputs": [
        {
          "internalType": "uint256",
          "name": "_txIndex",
          "type": "uint256"
        }
      ],
      "name": "cancelApproval",
      "outputs": [],
      "stateMutability": "nonpayable",
      "type": "function"
    },
    {
      "inputs": [],
      "name": "deposit",
      "outputs": [],
      "stateMutability": "payable",
      "type": "function"
    },
    {
      "inputs": [
        {
          "internalType": "uint256",
          "name": "_txIndex",
          "type": "uint256"
        }
      ],
      "name": "executeTx",
      "outputs": [],
      "stateMutability": "nonpayable",
      "type": "function"
    },
    {
      "inputs": [],
      "name": "getBalance",
      "outputs": [
        {
          "internalType": "uint256",
          "name": "",
          "type": "uint256"
        }
      ],
      "stateMutability": "view",
      "type": "function"
    },
    {
      "inputs": [],
      "name": "getOwners",
      "outputs": [
        {
          "internalType": "address[]",
          "name": "",
          "type": "address[]"
        }
      ],
      "stateMutability": "view",
      "type": "function"
    },
    {
      "inputs": [
        {
          "internalType": "uint256",
          "name": "_txIndex",
          "type": "uint256"
        }
      ],
      "name": "getTx",
      "outputs": [
        {
          "internalType": "address",
          "name": "to",
          "type": "address"
        },
        {
          "internalType": "uint256",
          "name": "value",
          "type": "uint256"
        },
        {
          "internalType": "bytes",
          "name": "data",
          "type": "bytes"
        },
        {
          "internalType": "bool",
          "name": "executed",
          "type": "bool"
        },
        {
          "internalType": "uint256",
          "name": "numConfirmations",
          "type": "uint256"
        }
      ],
      "stateMutability": "view",
      "type": "function"
    },
    {
      "inputs": [],
      "name": "getTxCount",
      "outputs": [
        {
          "internalType": "uint256",
          "name": "",
          "type": "uint256"
        }
      ],
      "stateMutability": "view",
      "type": "function"
    },
    {
      "inputs": [
        {
          "internalType": "uint256",
          "name": "",
          "type": "uint256"
        },
        {
          "internalType": "address",
          "name": "",
          "type": "address"
        }
      ],
      "name": "hasApproved",
      "outputs": [
        {
          "internalType": "bool",
          "name": "",
          "type": "bool"
        }
      ],
      "stateMutability": "view",
      "type": "function"
    },
    {
      "inputs": [
        {
          "internalType": "address",
          "name": "",
          "type": "address"
        }
      ],
      "name": "isOwner",
      "outputs": [
        {
          "internalType": "bool",
          "name": "",
          "type": "bool"
        }
      ],
      "stateMutability": "view",
      "type": "function"
    },
    {
      "inputs": [],
      "name": "numRequiredApprovals",
      "outputs": [
        {
          "internalType": "uint256",
          "name": "",
          "type": "uint256"
        }
      ],
      "stateMutability": "view",
      "type": "function"
    },
    {
      "inputs": [
        {
          "internalType": "uint256",
          "name": "",
          "type": "uint256"
        }
      ],
      "name": "owners",
      "outputs": [
        {
          "internalType": "address",
          "name": "",
          "type": "address"
        }
      ],
      "stateMutability": "view",
      "type": "function"
    },
    {
      "inputs": [
        {
          "internalType": "uint256",
          "name": "",
          "type": "uint256"
        }
      ],
      "name": "proposals",
      "outputs": [
        {
          "internalType": "address",
          "name": "to",
          "type": "address"
        },
        {
          "internalType": "uint256",
          "name": "value",
          "type": "uint256"
        },
        {
          "internalType": "bytes",
          "name": "data",
          "type": "bytes"
        },
        {
          "internalType": "uint256",
          "name": "numApprovals",
          "type": "uint256"
        },
        {
          "internalType": "bool",
          "name": "executed",
          "type": "bool"
        }
      ],
      "stateMutability": "view",
      "type": "function"
    },
    {
      "inputs": [
        {
          "internalType": "address",
          "name": "_to",
          "type": "address"
        },
        {
          "internalType": "uint256",
          "name": "_value",
          "type": "uint256"
        },
        {
          "internalType": "bytes",
          "name": "_data",
          "type": "bytes"
        }
      ],
      "name": "proposeTx",
      "outputs": [],
      "stateMutability": "nonpayable",
      "type": "function"
    },
    {
      "stateMutability": "payable",
      "type": "receive"
    }
  ],
  "bytecode": "0x60806040523480156200001157600080fd5b506040516200278138038062002781833981810160405281019062000037919062000413565b60008251116200007e576040517f08c379a0000000000000000000000000000000000000000000000000000000008152600401620000759062000574565b60405180910390fd5b8151811115620000c5576040517f08c379a0000000000000000000000000000000000000000000000000000000008152600401620000bc9062000530565b60405180910390fd5b600081116200010b576040517f08c379a0000000000000000000000000000000000000000000000000000000008152600401620001029062000596565b60405180910390fd5b60005b82518110156200033357600083828151811062000154577f4e487b7100000000000000000000000000000000000000000000000000000000600052603260045260246000fd5b60200260200101519050600073ffffffffffffffffffffffffffffffffffffffff168173ffffffffffffffffffffffffffffffffffffffff161415620001d1576040517f08c379a0000000000000000000000000000000000000000000000000000000008152600401620001c890620005b8565b60405180910390fd5b600260008273ffffffffffffffffffffffffffffffffffffffff1673ffffffffffffffffffffffffffffffffffffffff16815260200190815260200160002060009054906101000a900460ff161562000261576040517f08c379a0000000000000000000000000000000000000000000000000000000008152600401620002589062000552565b60405180910390fd5b6001600260008373ffffffffffffffffffffffffffffffffffffffff1673ffffffffffffffffffffffffffffffffffffffff16815260200190815260200160002060006101000a81548160ff0219169083151502179055506000819080600181540180825580915050600190039060005260206000200160009091909190916101000a81548173ffffffffffffffffffffffffffffffffffffffff021916908373ffffffffffffffffffffffffffffffffffffffff1602179055505080806200032a90620006b7565b9150506200010e565b50806001819055505050620008e7565b60006200035a620003548462000603565b620005da565b905080838252602082019050828560208602820111156200037a57600080fd5b60005b85811015620003ae5781620003938882620003b8565b8452602084019350602083019250506001810190506200037d565b5050509392505050565b600081519050620003c981620008b3565b92915050565b600082601f830112620003e157600080fd5b8151620003f384826020860162000343565b91505092915050565b6000815190506200040d81620008cd565b92915050565b600080604083850312156200042757600080fd5b600083015167ffffffffffffffff8111156200044257600080fd5b6200045085828601620003cf565b92505060206200046385828601620003fc565b9150509250929050565b60006200047c60458362000632565b9150620004898262000774565b606082019050919050565b6000620004a3601a8362000632565b9150620004b082620007e9565b602082019050919050565b6000620004ca601c8362000632565b9150620004d78262000812565b602082019050919050565b6000620004f160228362000632565b9150620004fe826200083b565b604082019050919050565b600062000518601c8362000632565b915062000525826200088a565b602082019050919050565b600060208201905081810360008301526200054b816200046d565b9050919050565b600060208201905081810360008301526200056d8162000494565b9050919050565b600060208201905081810360008301526200058f81620004bb565b9050919050565b60006020820190508181036000830152620005b181620004e2565b9050919050565b60006020820190508181036000830152620005d38162000509565b9050919050565b6000620005e6620005f9565b9050620005f4828262000681565b919050565b6000604051905090565b600067ffffffffffffffff82111562000621576200062062000734565b5b602082029050602081019050919050565b600082825260208201905092915050565b6000620006508262000657565b9050919050565b600073ffffffffffffffffffffffffffffffffffffffff82169050919050565b6000819050919050565b6200068c8262000763565b810181811067ffffffffffffffff82111715620006ae57620006ad62000734565b5b80604052505050565b6000620006c48262000677565b91507fffffffffffffffffffffffffffffffffffffffffffffffffffffffffffffffff821415620006fa57620006f962000705565b5b600182019050919050565b7f4e487b7100000000000000000000000000000000000000000000000000000000600052601160045260246000fd5b7f4e487b7100000000000000000000000000000000000000000000000000000000600052604160045260246000fd5b6000601f19601f8301169050919050565b7f726571756972656420617070726f76616c73206d757374206265206c6573732060008201527f7468616e206f7220657175616c20746f20746865206e756d626572206f66206f60208201527f776e657273000000000000000000000000000000000000000000000000000000604082015250565b7f6f6e6c79206f6e65206f776e6572207065722061646472657373000000000000600082015250565b7f6d7573742068617665206174206c65617374206f6e65206f776e657200000000600082015250565b7f6d7573742072657175697265206174206c65617374206f6e6520617070726f7660008201527f616c000000000000000000000000000000000000000000000000000000000000602082015250565b7f7a65726f20616464726573732063616e6e6f74206265206f776e657200000000600082015250565b620008be8162000643565b8114620008ca57600080fd5b50565b620008d88162000677565b8114620008e457600080fd5b50565b611e8a80620008f76000396000f3fe6080604052600436106100e15760003560e01c8063495ea9c91161007f5780636ce46b2c116100595780636ce46b2c1461032f578063a0e67e2b1461035a578063b8c8933814610385578063d0e30db0146103c657610138565b8063495ea9c9146102b45780635449fe03146102dd57806354b5fe801461030657610138565b806312065fe0116100bb57806312065fe0146101e45780631dd46c1e1461020f5780632358d5a81461023a5780632f54bf6e1461027757610138565b8063013cf08b1461013d578063025e7c271461017e5780631087393a146101bb57610138565b36610138573373ffffffffffffffffffffffffffffffffffffffff167f90890809c654f11d6e72a28fa60149770a0d11ec6c92319d6ceb2bb0a4ea1a15344760405161012e9291906119ae565b60405180910390a2005b600080fd5b34801561014957600080fd5b50610164600480360381019061015f919061149a565b6103d0565b6040516101759594939291906117f0565b60405180910390f35b34801561018a57600080fd5b506101a560048036038101906101a0919061149a565b6104cb565b6040516101b29190611752565b60405180910390f35b3480156101c757600080fd5b506101e260048036038101906101dd919061149a565b61050a565b005b3480156101f057600080fd5b506101f961082f565b6040516102069190611947565b60405180910390f35b34801561021b57600080fd5b50610224610837565b6040516102319190611947565b60405180910390f35b34801561024657600080fd5b50610261600480360381019061025c91906114c3565b610844565b60405161026e919061186c565b60405180910390f35b34801561028357600080fd5b5061029e6004803603810190610299919061140a565b610873565b6040516102ab919061186c565b60405180910390f35b3480156102c057600080fd5b506102db60048036038101906102d69190611433565b610893565b005b3480156102e957600080fd5b5061030460048036038101906102ff919061149a565b610a90565b005b34801561031257600080fd5b5061032d6004803603810190610328919061149a565b610d76565b005b34801561033b57600080fd5b506103446110b6565b6040516103519190611947565b60405180910390f35b34801561036657600080fd5b5061036f6110bc565b60405161037c919061184a565b60405180910390f35b34801561039157600080fd5b506103ac60048036038101906103a7919061149a565b61114a565b6040516103bd959493929190611796565b60405180910390f35b6103ce611283565b005b600381815481106103e057600080fd5b90600052602060002090600502016000915090508060000160009054906101000a900473ffffffffffffffffffffffffffffffffffffffff169080600101549080600201805461042f90611bbd565b80601f016020809104026020016040519081016040528092919081815260200182805461045b90611bbd565b80156104a85780601f1061047d576101008083540402835291602001916104a8565b820191906000526020600020905b81548152906001019060200180831161048b57829003601f168201915b5050505050908060030154908060040160009054906101000a900460ff16905085565b600081815481106104db57600080fd5b906000526020600020016000915054906101000a900473ffffffffffffffffffffffffffffffffffffffff1681565b60011515600260003373ffffffffffffffffffffffffffffffffffffffff1673ffffffffffffffffffffffffffffffffffffffff16815260200190815260200160002060009054906101000a900460ff1615151461059d576040517f08c379a0000000000000000000000000000000000000000000000000000000008152600401610594906118e7565b60405180910390fd5b8060038054905081106105e5576040517f08c379a00000000000000000000000000000000000000000000000000000000081526004016105dc906118a7565b60405180910390fd5b8160038181548110610620577f4e487b7100000000000000000000000000000000000000000000000000000000600052603260045260246000fd5b906000526020600020906005020160040160009054906101000a900460ff161561067f576040517f08c379a000000000000000000000000000000000000000000000000000000000815260040161067690611927565b60405180910390fd5b826004600082815260200190815260200160002060003373ffffffffffffffffffffffffffffffffffffffff1673ffffffffffffffffffffffffffffffffffffffff16815260200190815260200160002060009054906101000a900460ff161561071e576040517f08c379a0000000000000000000000000000000000000000000000000000000008152600401610715906118c7565b60405180910390fd5b60006003858154811061075a577f4e487b7100000000000000000000000000000000000000000000000000000000600052603260045260246000fd5b90600052602060002090600502019050600181600301600082825461077f9190611ab3565b9250508190555060016004600087815260200190815260200160002060003373ffffffffffffffffffffffffffffffffffffffff1673ffffffffffffffffffffffffffffffffffffffff16815260200190815260200160002060006101000a81548160ff0219169083151502179055507f945242f7e1728d98aaa75300f98846a7cd4a996e7a22a4e23963ffaf0210e64e338660405161082092919061176d565b60405180910390a15050505050565b600047905090565b6000600380549050905090565b60046020528160005260406000206020528060005260406000206000915091509054906101000a900460ff1681565b60026020528060005260406000206000915054906101000a900460ff1681565b60011515600260003373ffffffffffffffffffffffffffffffffffffffff1673ffffffffffffffffffffffffffffffffffffffff16815260200190815260200160002060009054906101000a900460ff16151514610926576040517f08c379a000000000000000000000000000000000000000000000000000000000815260040161091d906118e7565b60405180910390fd5b6000600380549050905060036040518060a001604052808673ffffffffffffffffffffffffffffffffffffffff1681526020018581526020018481526020016000815260200160001515815250908060018154018082558091505060019003906000526020600020906005020160009091909190915060008201518160000160006101000a81548173ffffffffffffffffffffffffffffffffffffffff021916908373ffffffffffffffffffffffffffffffffffffffff160217905550602082015181600101556040820151816002019080519060200190610a099291906112d5565b506060820151816003015560808201518160040160006101000a81548160ff02191690831515021790555050503373ffffffffffffffffffffffffffffffffffffffff167ff60d3c2d07d13dada8806d127d45fc616dafbeaa0dd1399ab9f9edcd719e4f9f82868686604051610a829493929190611962565b60405180910390a250505050565b60011515600260003373ffffffffffffffffffffffffffffffffffffffff1673ffffffffffffffffffffffffffffffffffffffff16815260200190815260200160002060009054906101000a900460ff16151514610b23576040517f08c379a0000000000000000000000000000000000000000000000000000000008152600401610b1a906118e7565b60405180910390fd5b806003805490508110610b6b576040517f08c379a0000000000000000000000000000000000000000000000000000000008152600401610b62906118a7565b60405180910390fd5b8160038181548110610ba6577f4e487b7100000000000000000000000000000000000000000000000000000000600052603260045260246000fd5b906000526020600020906005020160040160009054906101000a900460ff1615610c05576040517f08c379a0000000000000000000000000000000000000000000000000000000008152600401610bfc90611927565b60405180910390fd5b826004600082815260200190815260200160002060003373ffffffffffffffffffffffffffffffffffffffff1673ffffffffffffffffffffffffffffffffffffffff16815260200190815260200160002060009054906101000a900460ff16610c6d57600080fd5b60006004600086815260200190815260200160002060003373ffffffffffffffffffffffffffffffffffffffff1673ffffffffffffffffffffffffffffffffffffffff16815260200190815260200160002060006101000a81548160ff02191690831515021790555060038481548110610d10577f4e487b7100000000000000000000000000000000000000000000000000000000600052603260045260246000fd5b90600052602060002090600502016003016000815480929190610d3290611b93565b91905055507f9b8f7474120cc566ba89ea9a914ebc7bd9febe3f51849c02939f22eb7604cfd83385604051610d6892919061176d565b60405180910390a150505050565b60011515600260003373ffffffffffffffffffffffffffffffffffffffff1673ffffffffffffffffffffffffffffffffffffffff16815260200190815260200160002060009054906101000a900460ff16151514610e09576040517f08c379a0000000000000000000000000000000000000000000000000000000008152600401610e00906118e7565b60405180910390fd5b806003805490508110610e51576040517f08c379a0000000000000000000000000000000000000000000000000000000008152600401610e48906118a7565b60405180910390fd5b8160038181548110610e8c577f4e487b7100000000000000000000000000000000000000000000000000000000600052603260045260246000fd5b906000526020600020906005020160040160009054906101000a900460ff1615610eeb576040517f08c379a0000000000000000000000000000000000000000000000000000000008152600401610ee290611927565b60405180910390fd5b600060038481548110610f27577f4e487b7100000000000000000000000000000000000000000000000000000000600052603260045260246000fd5b9060005260206000209060050201905060015481600301541015610f80576040517f08c379a0000000000000000000000000000000000000000000000000000000008152600401610f7790611907565b60405180910390fd5b60018160040160006101000a81548160ff02191690831515021790555060008160000160009054906101000a900473ffffffffffffffffffffffffffffffffffffffff1673ffffffffffffffffffffffffffffffffffffffff16826001015483600201604051610ff0919061173b565b60006040518083038185875af1925050503d806000811461102d576040519150601f19603f3d011682016040523d82523d6000602084013e611032565b606091505b5050905080611076576040517f08c379a000000000000000000000000000000000000000000000000000000000815260040161106d90611887565b60405180910390fd5b7f39bf31f4588071daaa9c395053bda7fb7fab807ac7e3d18f77dc5a6322423eba33866040516110a792919061176d565b60405180910390a15050505050565b60015481565b6060600080548060200260200160405190810160405280929190818152602001828054801561114057602002820191906000526020600020905b8160009054906101000a900473ffffffffffffffffffffffffffffffffffffffff1673ffffffffffffffffffffffffffffffffffffffff16815260200190600101908083116110f6575b5050505050905090565b600080606060008060006003878154811061118e577f4e487b7100000000000000000000000000000000000000000000000000000000600052603260045260246000fd5b906000526020600020906005020190508060000160009054906101000a900473ffffffffffffffffffffffffffffffffffffffff168160010154826002018360040160009054906101000a900460ff1684600301548280546111ef90611bbd565b80601f016020809104026020016040519081016040528092919081815260200182805461121b90611bbd565b80156112685780601f1061123d57610100808354040283529160200191611268565b820191906000526020600020905b81548152906001019060200180831161124b57829003601f168201915b50505050509250955095509550955095505091939590929450565b3373ffffffffffffffffffffffffffffffffffffffff167f90890809c654f11d6e72a28fa60149770a0d11ec6c92319d6ceb2bb0a4ea1a1534476040516112cb9291906119ae565b60405180910390a2565b8280546112e190611bbd565b90600052602060002090601f016020900481019282611303576000855561134a565b82601f1061131c57805160ff191683800117855561134a565b8280016001018555821561134a579182015b8281111561134957825182559160200191906001019061132e565b5b509050611357919061135b565b5090565b5b8082111561137457600081600090555060010161135c565b5090565b600061138b611386846119fc565b6119d7565b9050828152602081018484840111156113a357600080fd5b6113ae848285611b51565b509392505050565b6000813590506113c581611e26565b92915050565b600082601f8301126113dc57600080fd5b81356113ec848260208601611378565b91505092915050565b60008135905061140481611e3d565b92915050565b60006020828403121561141c57600080fd5b600061142a848285016113b6565b91505092915050565b60008060006060848603121561144857600080fd5b6000611456868287016113b6565b9350506020611467868287016113f5565b925050604084013567ffffffffffffffff81111561148457600080fd5b611490868287016113cb565b9150509250925092565b6000602082840312156114ac57600080fd5b60006114ba848285016113f5565b91505092915050565b600080604083850312156114d657600080fd5b60006114e4858286016113f5565b92505060206114f5858286016113b6565b9150509250929050565b600061150b8383611517565b60208301905092915050565b61152081611b09565b82525050565b61152f81611b09565b82525050565b600061154082611a52565b61154a8185611a75565b935061155583611a2d565b8060005b8381101561158657815161156d88826114ff565b975061157883611a68565b925050600181019050611559565b5085935050505092915050565b61159c81611b1b565b82525050565b60006115ad82611a5d565b6115b78185611a86565b93506115c7818560208601611b60565b6115d081611cad565b840191505092915050565b600081546115e881611bbd565b6115f28186611a97565b9450600182166000811461160d576001811461161e57611651565b60ff19831686528186019350611651565b61162785611a3d565b60005b838110156116495781548189015260018201915060208101905061162a565b838801955050505b50505092915050565b6000611667601483611aa2565b915061167282611cbe565b602082019050919050565b600061168a601183611aa2565b915061169582611ce7565b602082019050919050565b60006116ad602a83611aa2565b91506116b882611d10565b604082019050919050565b60006116d0602483611aa2565b91506116db82611d5f565b604082019050919050565b60006116f3602d83611aa2565b91506116fe82611dae565b604082019050919050565b6000611716601383611aa2565b915061172182611dfd565b602082019050919050565b61173581611b47565b82525050565b600061174782846115db565b915081905092915050565b60006020820190506117676000830184611526565b92915050565b60006040820190506117826000830185611526565b61178f602083018461172c565b9392505050565b600060a0820190506117ab6000830188611526565b6117b8602083018761172c565b81810360408301526117ca81866115a2565b90506117d96060830185611593565b6117e6608083018461172c565b9695505050505050565b600060a0820190506118056000830188611526565b611812602083018761172c565b818103604083015261182481866115a2565b9050611833606083018561172c565b6118406080830184611593565b9695505050505050565b600060208201905081810360008301526118648184611535565b905092915050565b60006020820190506118816000830184611593565b92915050565b600060208201905081810360008301526118a08161165a565b9050919050565b600060208201905081810360008301526118c08161167d565b9050919050565b600060208201905081810360008301526118e0816116a0565b9050919050565b60006020820190508181036000830152611900816116c3565b9050919050565b60006020820190508181036000830152611920816116e6565b9050919050565b6000602082019050818103600083015261194081611709565b9050919050565b600060208201905061195c600083018461172c565b92915050565b6000608082019050611977600083018761172c565b6119846020830186611526565b611991604083018561172c565b81810360608301526119a381846115a2565b905095945050505050565b60006040820190506119c3600083018561172c565b6119d0602083018461172c565b9392505050565b60006119e16119f2565b90506119ed8282611bef565b919050565b6000604051905090565b600067ffffffffffffffff821115611a1757611a16611c7e565b5b611a2082611cad565b9050602081019050919050565b6000819050602082019050919050565b60008190508160005260206000209050919050565b600081519050919050565b600081519050919050565b6000602082019050919050565b600082825260208201905092915050565b600082825260208201905092915050565b600081905092915050565b600082825260208201905092915050565b6000611abe82611b47565b9150611ac983611b47565b9250827fffffffffffffffffffffffffffffffffffffffffffffffffffffffffffffffff03821115611afe57611afd611c20565b5b828201905092915050565b6000611b1482611b27565b9050919050565b60008115159050919050565b600073ffffffffffffffffffffffffffffffffffffffff82169050919050565b6000819050919050565b82818337600083830152505050565b60005b83811015611b7e578082015181840152602081019050611b63565b83811115611b8d576000848401525b50505050565b6000611b9e82611b47565b91506000821415611bb257611bb1611c20565b5b600182039050919050565b60006002820490506001821680611bd557607f821691505b60208210811415611be957611be8611c4f565b5b50919050565b611bf882611cad565b810181811067ffffffffffffffff82111715611c1757611c16611c7e565b5b80604052505050565b7f4e487b7100000000000000000000000000000000000000000000000000000000600052601160045260246000fd5b7f4e487b7100000000000000000000000000000000000000000000000000000000600052602260045260246000fd5b7f4e487b7100000000000000000000000000000000000000000000000000000000600052604160045260246000fd5b6000601f19601f8301169050919050565b7f6661696c656420746f2073656e64206574686572000000000000000000000000600082015250565b7f747820646f6573206e6f74206578697374000000000000000000000000000000600082015250565b7f54782068617320616c7265616479206265656e20617070726f7665642062792060008201527f74686973206f776e657200000000000000000000000000000000000000000000602082015250565b7f6f6e6c79206f776e6572732063616e2061636365737320746869732066756e6360008201527f74696f6e00000000000000000000000000000000000000000000000000000000602082015250565b7f68617665206e6f742072656163686564207265717569726564206e756d62657260008201527f206f6620617070726f76616c7300000000000000000000000000000000000000602082015250565b7f747820616c726561647920657865637574656400000000000000000000000000600082015250565b611e2f81611b09565b8114611e3a57600080fd5b50565b611e4681611b47565b8114611e5157600080fd5b5056fea264697066735822122016010d1249d65c58bb3bceddf4478896721fe725004a21387163b87c81aa12a164736f6c63430008030033",
  "linkReferences": {},
  "deployedLinkReferences": {}
}